{
	"contractName": "TimeLock",
	"abi": [
		{
			"stateMutability": "payable",
			"type": "receive"
		},
		{
			"inputs": [
				{
					"internalType": "address",
					"name": "_stakingContract",
					"type": "address"
				},
				{
					"internalType": "address",
					"name": "_resolverContract",
					"type": "address"
				},
				{
					"internalType": "address",
					"name": "_owner",
					"type": "address"
				},
				{
					"internalType": "address",
					"name": "_defaultPool",
					"type": "address"
				},
				{
					"internalType": "uint256",
					"name": "_lockTime",
					"type": "uint256"
				}
			],
			"name": "initialize",
			"outputs": [],
			"stateMutability": "nonpayable",
			"type": "function"
		},
		{
			"inputs": [],
			"name": "getOwner",
			"outputs": [
				{
					"internalType": "address",
					"name": "x",
					"type": "address"
				}
			],
			"stateMutability": "view",
			"type": "function"
		},
		{
			"constant": true,
			"inputs": [],
			"name": "getDefaultPool",
			"outputs": [
				{
					"internalType": "address",
					"name": "x",
					"type": "address"
				}
			],
			"stateMutability": "view",
			"type": "function"
		},
		{
			"inputs": [],
			"name": "enableForwarding",
			"outputs": [],
			"stateMutability": "nonpayable",
			"type": "function"
		},
		{
			"inputs": [],
			"name": "disableForwarding",
			"outputs": [],
			"stateMutability": "nonpayable",
			"type": "function"
		},
		{
			"inputs": [],
			"name": "isForwardingEnabled",
			"outputs": [
				{
					"internalType": "bool",
					"name": "x",
					"type": "bool"
				}
			],
			"stateMutability": "view",
			"type": "function"
		},
		{
			"inputs": [],
			"name": "withdraw",
			"outputs": [],
			"stateMutability": "nonpayable",
			"type": "function"
		},
		{
			"constant": true,
			"inputs": [],
			"name": "getLockedFunds",
			"outputs": [
				{
					"internalType": "uint256",
					"name": "x",
					"type": "uint256"
				}
			],
			"stateMutability": "view",
			"type": "function"
		},
		{
			"constant": true,
			"inputs": [],
			"name": "getLockedFundsReleaseTime",
			"outputs": [
				{
					"internalType": "uint256",
					"name": "x",
					"type": "uint256"
				}
			],
			"stateMutability": "view",
			"type": "function"
		},
		{
			"inputs": [],
			"name": "isWithdrawAllowed",
			"outputs": [
				{
					"internalType": "bool",
					"name": "x",
					"type": "bool"
				}
			],
			"stateMutability": "view",
			"type": "function"
		},
		{
			"inputs": [
				{
					"internalType": "address",
					"name": "_pool",
					"type": "address"
				},
				{
					"internalType": "uint256",
					"name": "_amount",
					"type": "uint256"
				}
			],
			"name": "stake",
			"outputs": [],
			"stateMutability": "nonpayable",
			"type": "function"
		},
		{
			"inputs": [
				{
					"internalType": "address",
					"name": "_pool",
					"type": "address"
				},
				{
					"internalType": "uint256",
					"name": "_amount",
					"type": "uint256"
				}
			],
			"name": "unstake",
			"outputs": [],
			"stateMutability": "nonpayable",
			"type": "function"
		},
		{
			"inputs": [
				{
					"internalType": "address",
					"name": "_newPool",
					"type": "address"
				}
			],
			"name": "changeDefaultPool",
			"outputs": [],
			"stateMutability": "nonpayable",
			"type": "function"
		},
		{
			"inputs": [
				{
					"internalType": "address",
					"name": "_pool",
					"type": "address"
				}
			],
			"name": "stakeAmount",
			"outputs": [
				{
					"internalType": "uint256",
					"name": "",
					"type": "uint256"
				}
			],
			"stateMutability": "view",
			"type": "function"
		},
		{
			"inputs": [
				{
					"internalType": "address",
					"name": "_pool",
					"type": "address"
				},
				{
					"internalType": "uint256",
					"name": "_amount",
					"type": "uint256"
				}
			],
			"name": "requestUnstake",
			"outputs": [],
			"stateMutability": "nonpayable",
			"type": "function"
		},
		{
			"inputs": [
				{
					"internalType": "address",
					"name": "_pool",
					"type": "address"
				}
			],
			"name": "claimUnstakeRequest",
			"outputs": [],
			"stateMutability": "nonpayable",
			"type": "function"
		}
	],
	"bytecode": "0x608060405234801561001057600080fd5b506113f3806100206000396000f3fe6080604052600436106100f75760003560e01c806387ecca7b1161008a578063bf13526711610059578063bf1352671461055f578063c2a672e0146105c4578063cf5212431461061f578063f7013ef614610670576102ac565b806387ecca7b1461044557806388948f0e1461045c578063893d20e8146104ad578063adc9772e14610504576102ac565b80635456f01b116100c65780635456f01b1461034d57806360e539cc146103a4578063710ba631146103bb5780637e6d0fa014610416576102ac565b80633ccfd60b146102b15780634124a6a7146102c85780634598f6cb146102f35780635136260d14610322576102ac565b366102ac57600560009054906101000a900460ff16156102aa5760008060029054906101000a900473ffffffffffffffffffffffffffffffffffffffff1673ffffffffffffffffffffffffffffffffffffffff1663f49425016040518163ffffffff1660e01b815260040160206040518083038186803b15801561017a57600080fd5b505afa15801561018e573d6000803e3d6000fd5b505050506040513d60208110156101a457600080fd5b8101908080519060200190929190505050905080156102a857600060029054906101000a900473ffffffffffffffffffffffffffffffffffffffff1673ffffffffffffffffffffffffffffffffffffffff1663adc9772e34622dc6c090600360009054906101000a900473ffffffffffffffffffffffffffffffffffffffff16346040518563ffffffff1660e01b8152600401808373ffffffffffffffffffffffffffffffffffffffff1673ffffffffffffffffffffffffffffffffffffffff168152602001828152602001925050506000604051808303818589803b15801561028d57600080fd5b5088f11580156102a1573d6000803e3d6000fd5b5050505050505b505b005b600080fd5b3480156102bd57600080fd5b506102c661072b565b005b3480156102d457600080fd5b506102dd6107ea565b6040518082815260200191505060405180910390f35b3480156102ff57600080fd5b506103086107f2565b604051808215151515815260200191505060405180910390f35b34801561032e57600080fd5b50610337610809565b6040518082815260200191505060405180910390f35b34801561035957600080fd5b50610362610813565b604051808273ffffffffffffffffffffffffffffffffffffffff1673ffffffffffffffffffffffffffffffffffffffff16815260200191505060405180910390f35b3480156103b057600080fd5b506103b961083d565b005b3480156103c757600080fd5b50610414600480360360408110156103de57600080fd5b81019080803573ffffffffffffffffffffffffffffffffffffffff169060200190929190803590602001909291905050506108b4565b005b34801561042257600080fd5b5061042b6109d3565b604051808215151515815260200191505060405180910390f35b34801561045157600080fd5b5061045a6109df565b005b34801561046857600080fd5b506104ab6004803603602081101561047f57600080fd5b81019080803573ffffffffffffffffffffffffffffffffffffffff169060200190929190505050610a56565b005b3480156104b957600080fd5b506104c2610b6c565b604051808273ffffffffffffffffffffffffffffffffffffffff1673ffffffffffffffffffffffffffffffffffffffff16815260200191505060405180910390f35b34801561051057600080fd5b5061055d6004803603604081101561052757600080fd5b81019080803573ffffffffffffffffffffffffffffffffffffffff16906020019092919080359060200190929190505050610b96565b005b34801561056b57600080fd5b506105ae6004803603602081101561058257600080fd5b81019080803573ffffffffffffffffffffffffffffffffffffffff169060200190929190505050610cc3565b6040518082815260200191505060405180910390f35b3480156105d057600080fd5b5061061d600480360360408110156105e757600080fd5b81019080803573ffffffffffffffffffffffffffffffffffffffff16906020019092919080359060200190929190505050610ddf565b005b34801561062b57600080fd5b5061066e6004803603602081101561064257600080fd5b81019080803573ffffffffffffffffffffffffffffffffffffffff169060200190929190505050610f48565b005b34801561067c57600080fd5b50610729600480360360a081101561069357600080fd5b81019080803573ffffffffffffffffffffffffffffffffffffffff169060200190929190803573ffffffffffffffffffffffffffffffffffffffff169060200190929190803573ffffffffffffffffffffffffffffffffffffffff169060200190929190803573ffffffffffffffffffffffffffffffffffffffff16906020019092919080359060200190929190505050610fe6565b005b600260009054906101000a900473ffffffffffffffffffffffffffffffffffffffff1673ffffffffffffffffffffffffffffffffffffffff163373ffffffffffffffffffffffffffffffffffffffff161461078557600080fd5b600047141561079357600080fd5b42600454106107a157600080fd5b3373ffffffffffffffffffffffffffffffffffffffff166108fc479081150290604051600060405180830381858888f193505050501580156107e7573d6000803e3d6000fd5b50565b600047905090565b6000600560009054906101000a900460ff16905090565b6000600454905090565b6000600360009054906101000a900473ffffffffffffffffffffffffffffffffffffffff16905090565b600260009054906101000a900473ffffffffffffffffffffffffffffffffffffffff1673ffffffffffffffffffffffffffffffffffffffff163373ffffffffffffffffffffffffffffffffffffffff161461089757600080fd5b6001600560006101000a81548160ff021916908315150217905550565b600260009054906101000a900473ffffffffffffffffffffffffffffffffffffffff1673ffffffffffffffffffffffffffffffffffffffff163373ffffffffffffffffffffffffffffffffffffffff161461090e57600080fd5b600060029054906101000a900473ffffffffffffffffffffffffffffffffffffffff1673ffffffffffffffffffffffffffffffffffffffff1663b61ed63a83836040518363ffffffff1660e01b8152600401808373ffffffffffffffffffffffffffffffffffffffff1673ffffffffffffffffffffffffffffffffffffffff16815260200182815260200192505050600060405180830381600087803b1580156109b757600080fd5b505af11580156109cb573d6000803e3d6000fd5b505050505050565b60004260045410905090565b600260009054906101000a900473ffffffffffffffffffffffffffffffffffffffff1673ffffffffffffffffffffffffffffffffffffffff163373ffffffffffffffffffffffffffffffffffffffff1614610a3957600080fd5b6000600560006101000a81548160ff021916908315150217905550565b600260009054906101000a900473ffffffffffffffffffffffffffffffffffffffff1673ffffffffffffffffffffffffffffffffffffffff163373ffffffffffffffffffffffffffffffffffffffff1614610ab057600080fd5b600060029054906101000a900473ffffffffffffffffffffffffffffffffffffffff1673ffffffffffffffffffffffffffffffffffffffff1663cfef1441826040518263ffffffff1660e01b8152600401808273ffffffffffffffffffffffffffffffffffffffff1673ffffffffffffffffffffffffffffffffffffffff168152602001915050600060405180830381600087803b158015610b5157600080fd5b505af1158015610b65573d6000803e3d6000fd5b5050505050565b6000600260009054906101000a900473ffffffffffffffffffffffffffffffffffffffff16905090565b600260009054906101000a900473ffffffffffffffffffffffffffffffffffffffff1673ffffffffffffffffffffffffffffffffffffffff163373ffffffffffffffffffffffffffffffffffffffff1614610bf057600080fd5b80471015610bfd57600080fd5b600060029054906101000a900473ffffffffffffffffffffffffffffffffffffffff1673ffffffffffffffffffffffffffffffffffffffff1663adc9772e8284846040518463ffffffff1660e01b8152600401808373ffffffffffffffffffffffffffffffffffffffff1673ffffffffffffffffffffffffffffffffffffffff168152602001828152602001925050506000604051808303818588803b158015610ca657600080fd5b505af1158015610cba573d6000803e3d6000fd5b50505050505050565b600080600060029054906101000a900473ffffffffffffffffffffffffffffffffffffffff1673ffffffffffffffffffffffffffffffffffffffff1663a697ecff84306040518363ffffffff1660e01b8152600401808373ffffffffffffffffffffffffffffffffffffffff1673ffffffffffffffffffffffffffffffffffffffff1681526020018273ffffffffffffffffffffffffffffffffffffffff1673ffffffffffffffffffffffffffffffffffffffff1681526020019250505060206040518083038186803b158015610d9957600080fd5b505afa158015610dad573d6000803e3d6000fd5b505050506040513d6020811015610dc357600080fd5b8101908080519060200190929190505050905080915050919050565b600260009054906101000a900473ffffffffffffffffffffffffffffffffffffffff1673ffffffffffffffffffffffffffffffffffffffff163373ffffffffffffffffffffffffffffffffffffffff1614610e3957600080fd5b6000600560009054906101000a900460ff1690506000600560006101000a81548160ff021916908315150217905550600060029054906101000a900473ffffffffffffffffffffffffffffffffffffffff1673ffffffffffffffffffffffffffffffffffffffff1663f3fef3a384846040518363ffffffff1660e01b8152600401808373ffffffffffffffffffffffffffffffffffffffff1673ffffffffffffffffffffffffffffffffffffffff16815260200182815260200192505050600060405180830381600087803b158015610f1157600080fd5b505af1158015610f25573d6000803e3d6000fd5b5050505080600560006101000a81548160ff021916908315150217905550505050565b600260009054906101000a900473ffffffffffffffffffffffffffffffffffffffff1673ffffffffffffffffffffffffffffffffffffffff163373ffffffffffffffffffffffffffffffffffffffff1614610fa257600080fd5b80600360006101000a81548173ffffffffffffffffffffffffffffffffffffffff021916908373ffffffffffffffffffffffffffffffffffffffff16021790555050565b600060019054906101000a900460ff16806110055750611004611378565b5b8061101c57506000809054906101000a900460ff16155b611071576040517f08c379a000000000000000000000000000000000000000000000000000000000815260040180806020018281038252602e815260200180611390602e913960400191505060405180910390fd5b60008060019054906101000a900460ff1615905080156110c1576001600060016101000a81548160ff02191690831515021790555060016000806101000a81548160ff0219169083151502179055505b85600060026101000a81548173ffffffffffffffffffffffffffffffffffffffff021916908373ffffffffffffffffffffffffffffffffffffffff16021790555084600160006101000a81548173ffffffffffffffffffffffffffffffffffffffff021916908373ffffffffffffffffffffffffffffffffffffffff16021790555082600360006101000a81548173ffffffffffffffffffffffffffffffffffffffff021916908373ffffffffffffffffffffffffffffffffffffffff16021790555083600260006101000a81548173ffffffffffffffffffffffffffffffffffffffff021916908373ffffffffffffffffffffffffffffffffffffffff160217905550814201600481905550600073ffffffffffffffffffffffffffffffffffffffff16600360009054906101000a900473ffffffffffffffffffffffffffffffffffffffff1673ffffffffffffffffffffffffffffffffffffffff1614611240576001600560006101000a81548160ff0219169083151502179055505b600160009054906101000a900473ffffffffffffffffffffffffffffffffffffffff1673ffffffffffffffffffffffffffffffffffffffff16632a395162600260009054906101000a900473ffffffffffffffffffffffffffffffffffffffff16306040518363ffffffff1660e01b8152600401808373ffffffffffffffffffffffffffffffffffffffff1673ffffffffffffffffffffffffffffffffffffffff1681526020018273ffffffffffffffffffffffffffffffffffffffff1673ffffffffffffffffffffffffffffffffffffffff16815260200192505050600060405180830381600087803b15801561133757600080fd5b505af115801561134b573d6000803e3d6000fd5b5050505080156113705760008060016101000a81548160ff0219169083151502179055505b505050505050565b6000803090506000813b905060008114925050509056fe496e697469616c697a61626c653a20636f6e747261637420697320616c726561647920696e697469616c697a6564a26469706673582212200e9ef35077c8eb5e2114ba526ae74278db6bc106e6ca70f2fac571d9bc083a9264736f6c634300060a0033",
	"immutableReferences": {},
	"source": "pragma solidity >=0.4.22 <0.7.0;\nimport \"@openzeppelin/contracts/proxy/Initializable.sol\";\n\ncontract TimeLock is Initializable {\n    IStakingAuRa stakingContract;\n    IResolver resolverContract;\n    address owner;\n    address defaultPool;\n    uint releaseTime;\n    bool forwardOnReceive;\n\n    modifier onlyOwner {\n        require(msg.sender == owner);\n        _;\n    }\n\n    function initialize(\n        address _stakingContract,\n        address _resolverContract,\n        address _owner,\n        address _defaultPool,\n        uint _lockTime\n    ) public initializer {\n        stakingContract = IStakingAuRa(_stakingContract);\n        resolverContract = IResolver(_resolverContract);\n        defaultPool = _defaultPool;\n        owner = _owner;\n        releaseTime = now + _lockTime;\n        if (defaultPool != address(0x0)) {\n            forwardOnReceive = true;\n        }\n\n        resolverContract.addLockupAddress(owner, address(this));\n    }\n\n    receive() external payable {\n        if (forwardOnReceive) {\n            bool allowed = stakingContract.areStakeAndWithdrawAllowed();\n            if (allowed) {\n                stakingContract.stake.value(msg.value).gas(3000000)(defaultPool, msg.value);\n\n            }\n        }\n    }\n\n    function getOwner() external view returns (address x) {\n        return owner;\n    }\n\n    function getDefaultPool() external view returns (address x) {\n        return defaultPool;\n    }\n\n    function enableForwarding() external onlyOwner {\n        forwardOnReceive = true;\n    }\n\n    function disableForwarding() external onlyOwner {\n        forwardOnReceive = false;\n    }\n\n    function isForwardingEnabled() external view returns (bool x) {\n        return forwardOnReceive;\n    }\n\n    function withdraw() external onlyOwner {\n        // check if user has funds due for pay out because lock time is over\n        require(address(this).balance != 0);\n        require(releaseTime < now);\n        msg.sender.transfer(address(this).balance);\n    }\n\n    function getLockedFunds() external view returns (uint x) {\n        return address(this).balance;\n    }\n\n    function getLockedFundsReleaseTime() external view returns (uint x) {\n        return releaseTime;\n    }\n\n    function isWithdrawAllowed() external view returns (bool x){\n        return releaseTime < now;\n    }\n\n    function stake(address _pool, uint256 _amount) external onlyOwner {\n        require(address(this).balance >= _amount);\n        stakingContract.stake.value(_amount)(_pool, _amount);\n    }\n\n    function unstake(address _pool, uint256 _amount) external onlyOwner {\n        bool forward = forwardOnReceive;\n        forwardOnReceive = false;\n\n        stakingContract.withdraw(_pool, _amount);\n        forwardOnReceive = forward;\n    }\n\n    function changeDefaultPool(address _newPool) external onlyOwner {\n        defaultPool = _newPool;\n    }\n\n    function stakeAmount(address _pool) external view returns(uint256) {\n        uint256 amount = stakingContract.stakeAmount(_pool, address(this));\n        return amount;\n    }\n\n    function requestUnstake(address _pool, uint256 _amount) external onlyOwner {\n        stakingContract.orderWithdraw(_pool, int256(_amount));\n    }\n\n    function claimUnstakeRequest(address _pool) external onlyOwner {\n        stakingContract.claimOrderedWithdraw(_pool);\n    }\n}\n\ninterface IResolver {\n    function addLockupAddress(address _account, address _lockup) external;\n}\n\ninterface IStakingAuRa {\n    function stake(address _toPoolStakingAddress, uint256 _amount) external payable;\n    function withdraw(address _fromPoolStakingAddress, uint256 _amount) external;\n    function stakeAmount(address, address) external view returns(uint256);\n    function areStakeAndWithdrawAllowed() external view returns(bool);\n    function orderWithdraw(address _poolStakingAddress, int256 _amount) external;\n    function claimOrderedWithdraw(address _poolStakingAddress) external;\n}",
	"sourcePath": "/Users/tetyanalevochko/go/src/github.com/velas/lockup-contracts/contracts/TimeLock.sol",
	"compiler": {
		"name": "solc",
		"version": "0.6.10+commit.00c0fcaf.Emscripten.clang"
	},
	"schemaVersion": "3.2.5",
	"updatedAt": "2021-02-03T13:43:51.816Z",
	"devdoc": {
		"methods": {}
	},
	"userdoc": {
		"methods": {}
	}
}