{
	"contractName": "TimeLock",
	"abi": [
		{
			"stateMutability": "payable",
			"type": "receive"
		},
		{
			"inputs": [
				{
					"internalType": "address",
					"name": "_stakingContract",
					"type": "address"
				},
				{
					"internalType": "address",
					"name": "_resolverContract",
					"type": "address"
				},
				{
					"internalType": "address",
					"name": "_owner",
					"type": "address"
				},
				{
					"internalType": "address",
					"name": "_defaultPool",
					"type": "address"
				},
				{
					"internalType": "uint256",
					"name": "_lockTime",
					"type": "uint256"
				},
				{
					"internalType": "uint256",
					"name": "_lockThreshold",
					"type": "uint256"
				}
			],
			"name": "initialize",
			"outputs": [],
			"stateMutability": "nonpayable",
			"type": "function"
		},
		{
			"inputs": [],
			"name": "getOwner",
			"outputs": [
				{
					"internalType": "address",
					"name": "x",
					"type": "address"
				}
			],
			"stateMutability": "view",
			"type": "function"
		},
		{
			"constant": true,
			"inputs": [],
			"name": "getDefaultPool",
			"outputs": [
				{
					"internalType": "address",
					"name": "x",
					"type": "address"
				}
			],
			"stateMutability": "view",
			"type": "function"
		},
		{
			"constant": true,
			"inputs": [],
			"name": "enableForwarding",
			"outputs": [],
			"stateMutability": "nonpayable",
			"type": "function"
		},
		{
			"constant": true,
			"inputs": [],
			"name": "disableForwarding",
			"outputs": [],
			"stateMutability": "nonpayable",
			"type": "function"
		},
		{
			"constant": true,
			"inputs": [],
			"name": "isForwardingEnabled",
			"outputs": [
				{
					"internalType": "bool",
					"name": "x",
					"type": "bool"
				}
			],
			"stateMutability": "view",
			"type": "function"
		},
		{
			"constant": true,
			"inputs": [],
			"name": "withdraw",
			"outputs": [],
			"stateMutability": "nonpayable",
			"type": "function"
		},
		{
			"constant": true,
			"inputs": [],
			"name": "getTotalStaked",
			"outputs": [
				{
					"internalType": "uint256",
					"name": "x",
					"type": "uint256"
				}
			],
			"stateMutability": "view",
			"type": "function"
		},
		{
			"constant": true,
			"inputs": [],
			"name": "getNonStakedFunds",
			"outputs": [
				{
					"internalType": "uint256",
					"name": "x",
					"type": "uint256"
				}
			],
			"stateMutability": "view",
			"type": "function"
		},
		{
			"constant": true,
			"inputs": [],
			"name": "getLockedFundsReleaseTime",
			"outputs": [
				{
					"internalType": "uint256",
					"name": "x",
					"type": "uint256"
				}
			],
			"stateMutability": "view",
			"type": "function"
		},
		{
			"constant": true,
			"inputs": [],
			"name": "maxWithdrawAllowed",
			"outputs": [
				{
					"internalType": "uint256",
					"name": "x",
					"type": "uint256"
				}
			],
			"stateMutability": "view",
			"type": "function"
		},
		{
			"constant": true,
			"inputs": [
				{
					"internalType": "address",
					"name": "_pool",
					"type": "address"
				},
				{
					"internalType": "uint256",
					"name": "_amount",
					"type": "uint256"
				}
			],
			"name": "stake",
			"outputs": [],
			"stateMutability": "nonpayable",
			"type": "function"
		},
		{
			"constant": true,
			"inputs": [
				{
					"internalType": "address",
					"name": "_pool",
					"type": "address"
				},
				{
					"internalType": "uint256",
					"name": "_amount",
					"type": "uint256"
				}
			],
			"name": "unstake",
			"outputs": [],
			"stateMutability": "nonpayable",
			"type": "function"
		},
		{
			"constant": true,
			"inputs": [
				{
					"internalType": "address",
					"name": "_newPool",
					"type": "address"
				}
			],
			"name": "changeDefaultPool",
			"outputs": [],
			"stateMutability": "nonpayable",
			"type": "function"
		},
		{
			"constant": true,
			"inputs": [
				{
					"internalType": "address",
					"name": "_pool",
					"type": "address"
				}
			],
			"name": "stakeAmount",
			"outputs": [
				{
					"internalType": "uint256",
					"name": "",
					"type": "uint256"
				}
			],
			"stateMutability": "view",
			"type": "function"
		},
		{
			"inputs": [
				{
					"internalType": "address",
					"name": "_pool",
					"type": "address"
				},
				{
					"internalType": "uint256",
					"name": "_amount",
					"type": "uint256"
				}
			],
			"name": "requestUnstake",
			"outputs": [],
			"stateMutability": "nonpayable",
			"type": "function"
		},
		{
			"inputs": [
				{
					"internalType": "address",
					"name": "_pool",
					"type": "address"
				}
			],
			"name": "claimUnstakeRequest",
			"outputs": [],
			"stateMutability": "nonpayable",
			"type": "function"
		}
	],
	"bytecode": "0x608060405234801561001057600080fd5b506117b8806100206000396000f3fe6080604052600436106101025760003560e01c806388948f0e11610095578063bf13526711610064578063bf135267146106f3578063c2a672e014610758578063cf521243146107b3578063d7c41c7914610804578063e89cb977146108c957610444565b806388948f0e146105c5578063893d20e814610616578063adc9772e1461066d578063bd4b7b8b146106c857610444565b80635456f01b116100d15780635456f01b146104e557806360e539cc1461053c578063710ba6311461055357806387ecca7b146105ae57610444565b80630917e776146104495780633ccfd60b146104745780634598f6cb1461048b5780635136260d146104ba57610444565b3661044457600560009054906101000a900460ff16156104425760008060029054906101000a900473ffffffffffffffffffffffffffffffffffffffff1673ffffffffffffffffffffffffffffffffffffffff1663f49425016040518163ffffffff1660e01b815260040160206040518083038186803b15801561018557600080fd5b505afa158015610199573d6000803e3d6000fd5b505050506040513d60208110156101af57600080fd5b8101908080519060200190929190505050905060008060029054906101000a900473ffffffffffffffffffffffffffffffffffffffff1673ffffffffffffffffffffffffffffffffffffffff1663a697ecff600360009054906101000a900473ffffffffffffffffffffffffffffffffffffffff16306040518363ffffffff1660e01b8152600401808373ffffffffffffffffffffffffffffffffffffffff1673ffffffffffffffffffffffffffffffffffffffff1681526020018273ffffffffffffffffffffffffffffffffffffffff1673ffffffffffffffffffffffffffffffffffffffff1681526020019250505060206040518083038186803b1580156102b857600080fd5b505afa1580156102cc573d6000803e3d6000fd5b505050506040513d60208110156102e257600080fd5b8101908080519060200190929190505050905069021e19e0c9bab240000034101561031f5769021e19e0c9bab240000081101561031e57600091505b5b811561043f57600060029054906101000a900473ffffffffffffffffffffffffffffffffffffffff1673ffffffffffffffffffffffffffffffffffffffff1663adc9772e34600360009054906101000a900473ffffffffffffffffffffffffffffffffffffffff16346040518463ffffffff1660e01b8152600401808373ffffffffffffffffffffffffffffffffffffffff1673ffffffffffffffffffffffffffffffffffffffff168152602001828152602001925050506000604051808303818588803b1580156103f057600080fd5b505af1158015610404573d6000803e3d6000fd5b505050505034600760008282540192505081905550600081141561043e576000600560006101000a81548160ff0219169083151502179055505b5b50505b005b600080fd5b34801561045557600080fd5b5061045e6108f4565b6040518082815260200191505060405180910390f35b34801561048057600080fd5b506104896108fe565b005b34801561049757600080fd5b506104a06109c9565b604051808215151515815260200191505060405180910390f35b3480156104c657600080fd5b506104cf6109e0565b6040518082815260200191505060405180910390f35b3480156104f157600080fd5b506104fa6109ea565b604051808273ffffffffffffffffffffffffffffffffffffffff1673ffffffffffffffffffffffffffffffffffffffff16815260200191505060405180910390f35b34801561054857600080fd5b50610551610a14565b005b34801561055f57600080fd5b506105ac6004803603604081101561057657600080fd5b81019080803573ffffffffffffffffffffffffffffffffffffffff16906020019092919080359060200190929190505050610a8b565b005b3480156105ba57600080fd5b506105c3610baa565b005b3480156105d157600080fd5b50610614600480360360208110156105e857600080fd5b81019080803573ffffffffffffffffffffffffffffffffffffffff169060200190929190505050610c21565b005b34801561062257600080fd5b5061062b610d37565b604051808273ffffffffffffffffffffffffffffffffffffffff1673ffffffffffffffffffffffffffffffffffffffff16815260200191505060405180910390f35b34801561067957600080fd5b506106c66004803603604081101561069057600080fd5b81019080803573ffffffffffffffffffffffffffffffffffffffff16906020019092919080359060200190929190505050610d61565b005b3480156106d457600080fd5b506106dd610fd5565b6040518082815260200191505060405180910390f35b3480156106ff57600080fd5b506107426004803603602081101561071657600080fd5b81019080803573ffffffffffffffffffffffffffffffffffffffff169060200190929190505050611068565b6040518082815260200191505060405180910390f35b34801561076457600080fd5b506107b16004803603604081101561077b57600080fd5b81019080803573ffffffffffffffffffffffffffffffffffffffff16906020019092919080359060200190929190505050611184565b005b3480156107bf57600080fd5b50610802600480360360208110156107d657600080fd5b81019080803573ffffffffffffffffffffffffffffffffffffffff1690602001909291905050506112fd565b005b34801561081057600080fd5b506108c7600480360360c081101561082757600080fd5b81019080803573ffffffffffffffffffffffffffffffffffffffff169060200190929190803573ffffffffffffffffffffffffffffffffffffffff169060200190929190803573ffffffffffffffffffffffffffffffffffffffff169060200190929190803573ffffffffffffffffffffffffffffffffffffffff169060200190929190803590602001909291908035906020019092919050505061139b565b005b3480156108d557600080fd5b506108de611735565b6040518082815260200191505060405180910390f35b6000600754905090565b600260009054906101000a900473ffffffffffffffffffffffffffffffffffffffff1673ffffffffffffffffffffffffffffffffffffffff163373ffffffffffffffffffffffffffffffffffffffff161461095857600080fd5b600047141561096657600080fd5b6000610970610fd5565b90506000811161097f57600080fd5b3373ffffffffffffffffffffffffffffffffffffffff166108fc829081150290604051600060405180830381858888f193505050501580156109c5573d6000803e3d6000fd5b5050565b6000600560009054906101000a900460ff16905090565b6000600454905090565b6000600360009054906101000a900473ffffffffffffffffffffffffffffffffffffffff16905090565b600260009054906101000a900473ffffffffffffffffffffffffffffffffffffffff1673ffffffffffffffffffffffffffffffffffffffff163373ffffffffffffffffffffffffffffffffffffffff1614610a6e57600080fd5b6001600560006101000a81548160ff021916908315150217905550565b600260009054906101000a900473ffffffffffffffffffffffffffffffffffffffff1673ffffffffffffffffffffffffffffffffffffffff163373ffffffffffffffffffffffffffffffffffffffff1614610ae557600080fd5b600060029054906101000a900473ffffffffffffffffffffffffffffffffffffffff1673ffffffffffffffffffffffffffffffffffffffff1663b61ed63a83836040518363ffffffff1660e01b8152600401808373ffffffffffffffffffffffffffffffffffffffff1673ffffffffffffffffffffffffffffffffffffffff16815260200182815260200192505050600060405180830381600087803b158015610b8e57600080fd5b505af1158015610ba2573d6000803e3d6000fd5b505050505050565b600260009054906101000a900473ffffffffffffffffffffffffffffffffffffffff1673ffffffffffffffffffffffffffffffffffffffff163373ffffffffffffffffffffffffffffffffffffffff1614610c0457600080fd5b6000600560006101000a81548160ff021916908315150217905550565b600260009054906101000a900473ffffffffffffffffffffffffffffffffffffffff1673ffffffffffffffffffffffffffffffffffffffff163373ffffffffffffffffffffffffffffffffffffffff1614610c7b57600080fd5b600060029054906101000a900473ffffffffffffffffffffffffffffffffffffffff1673ffffffffffffffffffffffffffffffffffffffff1663cfef1441826040518263ffffffff1660e01b8152600401808273ffffffffffffffffffffffffffffffffffffffff1673ffffffffffffffffffffffffffffffffffffffff168152602001915050600060405180830381600087803b158015610d1c57600080fd5b505af1158015610d30573d6000803e3d6000fd5b5050505050565b6000600260009054906101000a900473ffffffffffffffffffffffffffffffffffffffff16905090565b600260009054906101000a900473ffffffffffffffffffffffffffffffffffffffff1673ffffffffffffffffffffffffffffffffffffffff163373ffffffffffffffffffffffffffffffffffffffff1614610dbb57600080fd5b80471015610dc857600080fd5b60008060029054906101000a900473ffffffffffffffffffffffffffffffffffffffff1673ffffffffffffffffffffffffffffffffffffffff1663a697ecff84306040518363ffffffff1660e01b8152600401808373ffffffffffffffffffffffffffffffffffffffff1673ffffffffffffffffffffffffffffffffffffffff1681526020018273ffffffffffffffffffffffffffffffffffffffff1673ffffffffffffffffffffffffffffffffffffffff1681526020019250505060206040518083038186803b158015610e9c57600080fd5b505afa158015610eb0573d6000803e3d6000fd5b505050506040513d6020811015610ec657600080fd5b81019080805190602001909291905050509050600060029054906101000a900473ffffffffffffffffffffffffffffffffffffffff1673ffffffffffffffffffffffffffffffffffffffff1663adc9772e8385856040518463ffffffff1660e01b8152600401808373ffffffffffffffffffffffffffffffffffffffff1673ffffffffffffffffffffffffffffffffffffffff168152602001828152602001925050506000604051808303818588803b158015610f8257600080fd5b505af1158015610f96573d6000803e3d6000fd5b5050505050816007600082825401925050819055506000811415610fd0576000600560006101000a81548160ff0219169083151502179055505b505050565b600080479050426004541015610fee5780915050611065565b600060075460065403905060006228206f42600454038161100b57fe5b04905060068110611037578183111561102b578183039350505050611065565b60009350505050611065565b60006006546006836006038161104957fe5b040290508083111561105b5780830392505b8284039450505050505b90565b600080600060029054906101000a900473ffffffffffffffffffffffffffffffffffffffff1673ffffffffffffffffffffffffffffffffffffffff1663a697ecff84306040518363ffffffff1660e01b8152600401808373ffffffffffffffffffffffffffffffffffffffff1673ffffffffffffffffffffffffffffffffffffffff1681526020018273ffffffffffffffffffffffffffffffffffffffff1673ffffffffffffffffffffffffffffffffffffffff1681526020019250505060206040518083038186803b15801561113e57600080fd5b505afa158015611152573d6000803e3d6000fd5b505050506040513d602081101561116857600080fd5b8101908080519060200190929190505050905080915050919050565b600260009054906101000a900473ffffffffffffffffffffffffffffffffffffffff1673ffffffffffffffffffffffffffffffffffffffff163373ffffffffffffffffffffffffffffffffffffffff16146111de57600080fd5b6000600560009054906101000a900460ff1690506000600560006101000a81548160ff021916908315150217905550600060029054906101000a900473ffffffffffffffffffffffffffffffffffffffff1673ffffffffffffffffffffffffffffffffffffffff1663f3fef3a384846040518363ffffffff1660e01b8152600401808373ffffffffffffffffffffffffffffffffffffffff1673ffffffffffffffffffffffffffffffffffffffff16815260200182815260200192505050600060405180830381600087803b1580156112b657600080fd5b505af11580156112ca573d6000803e3d6000fd5b505050508160076000828254039250508190555080600560006101000a81548160ff021916908315150217905550505050565b600260009054906101000a900473ffffffffffffffffffffffffffffffffffffffff1673ffffffffffffffffffffffffffffffffffffffff163373ffffffffffffffffffffffffffffffffffffffff161461135757600080fd5b80600360006101000a81548173ffffffffffffffffffffffffffffffffffffffff021916908373ffffffffffffffffffffffffffffffffffffffff16021790555050565b600060019054906101000a900460ff16806113ba57506113b961173d565b5b806113d157506000809054906101000a900460ff16155b611426576040517f08c379a000000000000000000000000000000000000000000000000000000000815260040180806020018281038252602e815260200180611755602e913960400191505060405180910390fd5b60008060019054906101000a900460ff161590508015611476576001600060016101000a81548160ff02191690831515021790555060016000806101000a81548160ff0219169083151502179055505b86600060026101000a81548173ffffffffffffffffffffffffffffffffffffffff021916908373ffffffffffffffffffffffffffffffffffffffff16021790555085600160006101000a81548173ffffffffffffffffffffffffffffffffffffffff021916908373ffffffffffffffffffffffffffffffffffffffff16021790555083600360006101000a81548173ffffffffffffffffffffffffffffffffffffffff021916908373ffffffffffffffffffffffffffffffffffffffff16021790555084600260006101000a81548173ffffffffffffffffffffffffffffffffffffffff021916908373ffffffffffffffffffffffffffffffffffffffff16021790555082420160048190555081600681905550600073ffffffffffffffffffffffffffffffffffffffff16600360009054906101000a900473ffffffffffffffffffffffffffffffffffffffff1673ffffffffffffffffffffffffffffffffffffffff16146115fc576001600560006101000a81548160ff0219169083151502179055505b600160009054906101000a900473ffffffffffffffffffffffffffffffffffffffff1673ffffffffffffffffffffffffffffffffffffffff16632a395162600260009054906101000a900473ffffffffffffffffffffffffffffffffffffffff16306040518363ffffffff1660e01b8152600401808373ffffffffffffffffffffffffffffffffffffffff1673ffffffffffffffffffffffffffffffffffffffff1681526020018273ffffffffffffffffffffffffffffffffffffffff1673ffffffffffffffffffffffffffffffffffffffff16815260200192505050600060405180830381600087803b1580156116f357600080fd5b505af1158015611707573d6000803e3d6000fd5b50505050801561172c5760008060016101000a81548160ff0219169083151502179055505b50505050505050565b600047905090565b6000803090506000813b905060008114925050509056fe496e697469616c697a61626c653a20636f6e747261637420697320616c726561647920696e697469616c697a6564a26469706673582212209f3c90f2e010708f064979edef673344d27b128c85956089b3f4cb321948563064736f6c634300060a0033",
	"immutableReferences": {},
	"source": "pragma solidity >=0.6.10 <0.7.0;\nimport \"@openzeppelin/contracts/proxy/Initializable.sol\";\n\ncontract TimeLock is Initializable {\n    IStakingAuRa stakingContract;\n    IResolver resolverContract;\n    address owner;\n    address defaultPool;\n    uint256 releaseTime;\n    bool forwardOnReceive;\n    uint256 constant MIN_DELEGATOR_STAKE = 10000000000000000000000;\n    uint256 constant VEST_STEP = 2629743;\n    uint256 constant LAST_VEST_PERIOD = 6;\n\n    uint256 lockThreshold;\n    uint256 stakeSum;\n\n    modifier onlyOwner {\n        require(msg.sender == owner);\n        _;\n    }\n\n    function initialize(\n        address _stakingContract,\n        address _resolverContract,\n        address _owner,\n        address _defaultPool,\n        uint _lockTime,\n        uint256 _lockThreshold\n    ) public initializer {\n        stakingContract = IStakingAuRa(_stakingContract);\n        resolverContract = IResolver(_resolverContract);\n        defaultPool = _defaultPool;\n        owner = _owner;\n        releaseTime = now + _lockTime;\n        lockThreshold = _lockThreshold;\n        if (defaultPool != address(0x0)) {\n            forwardOnReceive = true;\n        }\n\n        resolverContract.addLockupAddress(owner, address(this));\n    }\n\n    receive() external payable {\n        if (forwardOnReceive) {\n            bool allowed = stakingContract.areStakeAndWithdrawAllowed();\n            uint256 stake = stakingContract.stakeAmount(defaultPool, address(this));\n            if (msg.value < MIN_DELEGATOR_STAKE) {\n                if (stake < MIN_DELEGATOR_STAKE) {\n                    allowed = false;\n                }\n            }\n            if (allowed) {\n                stakingContract.stake.value(msg.value)(defaultPool, msg.value);\n                stakeSum += msg.value;\n                // check if it was first stake and disable\n                if (stake == 0) {\n                    forwardOnReceive = false;\n                }\n            }\n        }\n    }\n\n    function getOwner() external view returns (address x) {\n        return owner;\n    }\n\n    function getDefaultPool() external view returns (address x) {\n        return defaultPool;\n    }\n\n    function enableForwarding() external onlyOwner {\n        forwardOnReceive = true;\n    }\n\n    function disableForwarding() external onlyOwner {\n        forwardOnReceive = false;\n    }\n\n    function isForwardingEnabled() external view returns (bool x) {\n        return forwardOnReceive;\n    }\n\n    function withdraw() external onlyOwner {\n        // check if user has funds due for pay out because lock time is over\n        require(address(this).balance != 0);\n\n        uint256 max = maxWithdrawAllowed();\n        require(max > 0);\n\n        msg.sender.transfer(max);\n    }\n\n    function getTotalStaked() external view returns (uint256 x) {\n        return stakeSum;\n    }\n\n    function getNonStakedFunds() external view returns (uint x) {\n        return address(this).balance;\n    }\n\n    function getLockedFundsReleaseTime() external view returns (uint x) {\n        return releaseTime;\n    }\n\n    function maxWithdrawAllowed() public view returns (uint256 x) {\n        uint256 totalAmount = address(this).balance;\n        if (releaseTime < now) {\n            return totalAmount;\n        }\n\n        uint256 totalLocked = lockThreshold - stakeSum;\n        uint256 remainingMonths = (releaseTime - now) / VEST_STEP ;\n        if (remainingMonths >= LAST_VEST_PERIOD) {\n            if (totalAmount > totalLocked) {\n                return totalAmount - totalLocked;\n            }\n            return 0;\n        }\n\n        uint256 unlocked = (LAST_VEST_PERIOD - remainingMonths) / LAST_VEST_PERIOD * lockThreshold;\n        if (totalLocked > unlocked){\n        totalLocked -= unlocked;\n        }\n\n        return totalAmount - totalLocked;\n    }\n\n    function stake(address _pool, uint256 _amount) external onlyOwner {\n        require(address(this).balance >= _amount);\n        uint256 stake = stakingContract.stakeAmount(_pool, address(this));\n        stakingContract.stake.value(_amount)(_pool, _amount);\n        stakeSum += _amount;\n        // check if it was first stake and disable\n        if (stake == 0) {\n            forwardOnReceive = false;\n        }\n    }\n\n    function unstake(address _pool, uint256 _amount) external onlyOwner {\n        bool forward = forwardOnReceive;\n        forwardOnReceive = false;\n\n        stakingContract.withdraw(_pool, _amount);\n        stakeSum -= _amount;\n        forwardOnReceive = forward;\n    }\n\n    function changeDefaultPool(address _newPool) external onlyOwner {\n        defaultPool = _newPool;\n    }\n\n    function stakeAmount(address _pool) external view returns(uint256) {\n        uint256 amount = stakingContract.stakeAmount(_pool, address(this));\n        return amount;\n    }\n\n    function requestUnstake(address _pool, uint256 _amount) external onlyOwner {\n        stakingContract.orderWithdraw(_pool, int256(_amount));\n    }\n\n    function claimUnstakeRequest(address _pool) external onlyOwner {\n        stakingContract.claimOrderedWithdraw(_pool);\n    }\n}\n\ninterface IResolver {\n    function addLockupAddress(address _account, address _lockup) external;\n}\n\ninterface IStakingAuRa {\n    function stake(address _toPoolStakingAddress, uint256 _amount) external payable;\n    function withdraw(address _fromPoolStakingAddress, uint256 _amount) external;\n    function stakeAmount(address, address) external view returns(uint256);\n    function areStakeAndWithdrawAllowed() external view returns(bool);\n    function orderWithdraw(address _poolStakingAddress, int256 _amount) external;\n    function claimOrderedWithdraw(address _poolStakingAddress) external;\n}",
	"sourcePath": "/Users/tetyanalevochko/go/src/github.com/velas/lockup-contracts/contracts/TimeLock.sol",
	"compiler": {
		"name": "solc",
		"version": "0.6.10+commit.00c0fcaf.Emscripten.clang"
	},
	"schemaVersion": "3.2.5",
	"updatedAt": "2021-02-04T17:00:55.016Z",
	"devdoc": {
		"methods": {}
	},
	"userdoc": {
		"methods": {}
	}
}